:02000004F90001
:1000000097110800938101971721080013018118A7
:1000100017050800130505FF97050800938585FE61
:100020001386C18163FCC5008322050023A055000F
:100030001305450093854500E3E8C5FE1385C1819E
:10004000938501826378B5002320050013054500E0
:10005000E36CB5FEEF000001EF00C0656F0000002B
:0400600067800000B5
:10006400130101FF23248100232021011704080028
:10007400130404F917090800130989F8330989409E
:10008400232611002322910013592940630E0900ED
:100094009304000083270400938414001304440091
:1000A400E7800700E31899FE17040800130444F5D9
:1000B400170908001309C9F4330989401359294061
:1000C400630E090093040000832704009384140042
:1000D40013044400E7800700E31899FE8320C1005D
:1000E4000324810083244100032901001301010139
:1000F4006780000003254500135505011375F50FAE
:1001040067800000130101FF2326110023248100CE
:1001140023229100130405009384050013050400B1
:10012400EFF05FFDE30C05FE232094008320C10063
:10013400032481008324410013010101678000002E
:10014400B7470F0093870724B3D5F502B7C700005C
:10015400938787FF3306F600832706003385A502BD
:100164003305F50083270600B307F540E3DC07FEFB
:1001740067800000130101FF232611009305050089
:10018400370501F8EFF01FF88320C10013010101C6
:1001940067800000130101FF23261100232481003E
:1001A4001304050003450400630805001304140048
:1001B400EFF05FFC6FF01FFF8320C1000324810078
:1001C4001301010167800000130101FF23261100C0
:1001D4002324810023229100930405001304C00109
:1001E4006F004002B3D7840013F7F700B70708F98C
:1001F40093870700B387E70003C50700EFF09FF775
:100204001304C4FFE35004FE8320C10003248100CF
:10021400832441001301010167800000130101FFE1
:100224002326110023248100232291009304050036
:100234001304C0016F004002B3D7840013F7F70022
:10024400B70708F993874701B387E70003C5070099
:10025400EFF05FF21304C4FFE35004FE8320C100F7
:1002640003248100832441001301010167800000FD
:10027400130101FF232611001375F50FEFF09FEF13
:100284008320C1001301010167800000130101FFF5
:1002940023261100EFF01FF08320C1001301010198
:1002A40067800000130101FD23261102232481022B
:1002B4002322910293040500634605001304010000
:1002C4006F00C0021305D002EFF09FFAB304904010
:1002D4006FF0DFFE1307A000B3E7E4029387070380
:1002E4002300F400B3C4E40213041400E39404FEF2
:1002F40093070100E300F4FE6F0000011304F4FF10
:1003040003450400EFF0DFF693070100E318F4FE61
:100314008320C102032481028324410213010103C7
:1003240067800000130101FF23261100130700005A
:100334009307700063C0E70293162700930700FF3A
:10034400B397D700B377F500638607001307170048
:100354006FF01FFEEFF09FEC8320C1001301010139
:1003640067800000130101FF23261100130700001A
:100374009307700063C0E70293162700930700FFFA
:10038400B397D700B377F500638607001307170008
:100394006FF01FFEEFF05FE38320C1001301010142
:1003A4006780000093952500B385A50023A0C500B0
:1003B40067800000939575003385A500935556001A
:1003C400939525003305B500B72500003305B50026
:1003D40093071000B397C700638A0600032605003D
:1003E400B3E7C7002320F50067800000032605005B
:1003F40093C7F7FFB3F7C7002320F5006780000019
:100404009395C500B385A50037052000B385A500E5
:1004140023A0C500678000009395C500B385A5009F
:100424003705200013054500B385A50003A5050085
:10043400678000009395C500B385A50037052000AB
:1004440013054500B385A50023A0C50067800000FF
:10045400130101FC232E1100232C8100232A910077
:10046400930405002322B1022324C1022326D102CE
:100474002328E102232AF102232C0103232E110352
:10048400930741022326F100130400006F00C0010A
:100494008327C100138747002326E10003A5070033
:1004A400EFF01FDD13041400B387840003C50700B5
:1004B4006302050C930750026306F506EFF05FDB59
:1004C4006FF05FFE8327C100138747002326E100F6
:1004D40003A50700EFF09FDB6FF0DFFC8327C1006B
:1004E400138747002326E10003A50700EFF09FDBF5
:1004F4006FF05FFB8327C100138747002326E100C9
:1005040003A50700EFF01FE66FF0DFF98327C100B2
:10051400138747002326E10003A50700EFF09FE0BF
:100524006FF05FF813041400B387840083C70700D7
:10053400E38A07F613073006E38CE7F41307300762
:10054400E382E7F813074006E38AE7F81307800518
:10055400E382E7FA13078007E38AE7FA13076006E2
:10056400E392E7FC370508F913058502EFF01FD283
:100574006FF05FF38320C1010324810183244101CF
:100584001301010467800000130101FF23261100F9
:1005940013060000930500003705C0F8EFF05FE68E
:1005A400930610001306C000930500003705C0F839
:1005B400EFF05FE0130610009305C0003705C0F8A4
:1005C400EFF05FDEB76701F81307100023A0E7021E
:1005D400B70700F99387C77573905730B7170000B2
:1005E4009387078073A04730F32700303727000034
:1005F40013078780B3E7E700739007308320C100B7
:100604001301010167800000130101FF232611007B
:10061400370508F913054507EFF09FE36F00000065
:10062400130101FF232611002324810093050000F8
:100634003705C0F8EFF05FDE130405006308050218
:100644009307C0006312F402370508F913058508FF
:10065400EFF01FE013060400930500003705C0F80F
:10066400EFF05FDD6FF09FFCEFF01FFA8320C10015
:10067400032481001301010167800000130101FFBD
:1006840023261100F327203463D2070213F7F7005F
:100694009307B000631AF700EFF09FF88320C100BE
:1006A4001301010167800000EFF01FF6EFF0DFF5A2
:1006B400130101FF2326110023248100370508F9C3
:1006C4001305450AEFF0DFD8370508F91305850B44
:1006D400EFF01FD8B76701F81307E00023A4E70081
:1006E40023A20700130400006F000003376701F81A
:1006F4008327470093C7E7002322F7003706B0F8A3
:10070400B7857D0193850584378501001305056A46
:10071400EFF01FA31304140093071003E3D887FC1E
:10072400370508F91305450DEFF09FD2370508F991
:100734001305050FEFF0DFD1370508F9130505128E
:10074400EFF01FD1370508F913050515EFF05FD059
:10075400EFF09FE36F000000130101FC2320110060
:100764002322510023246100232671002328A100A1
:10077400232AB100232CC100232ED1002320E1021F
:100784002322F10223240103232611032328C10376
:10079400232AD103232CE103232EF103EFF01FEED0
:1007A4008320010083224100032381008323C100AD
:1007B4000325010183254101032681018326C1010B
:1007C4000327010283274102032881028328C102EF
:1007D400032E0103832E4103032F8103832FC103BF
:0807E400130101047300203031
:02000004F908F9
:10000000303132333435363738394142434445464E
:100010000000000030313233343536373839616210
:1000200063646566000000003C466C6F6174696E35
:100030006720706F696E74207072696E74696E6784
:10004000206E6F7420656E61626C652E20506C6549
:1000500061736520456E61626C652069742061740E
:10006000206273702E682066697273742E2E2E3E85
:10007000000000000D0A2A2A2A204352415348203A
:100080002A2A2A0D0A0000006770696F2030206953
:100090006E7465727275707420726F7574696E65B6
:1000A000200D0A006770696F20302064656D6F2035
:1000B00021200D0A000000006F6E626F61726420E3
:1000C0004C45447320626C696E6B696E67200D0A43
:1000D000000000006770696F203020696E746572DF
:1000E000727570742064656D6F2021200D0A000008
:1000F000546931383020707265737320616E6420EA
:1001000072656C65617365206F6E626F61726420E9
:10011000627574746F6E20737734200D0A000000CE
:100120005469363020707265737320616E6420727A
:10013000656C65617365206F6E626F6172642062C9
:100140007574746F6E20737736200D0A00000000FE
:100150005431323020707265737320616E64207286
:10016000656C65617365206F6E626F617264206299
:100170007574746F6E20737737200D0A00000000CD
:0A0180000000000000000000000075
:04000005F9000000FE
:00000001FF
